:020000040800F2
:100000000028002055160008C9130008CF13000867
:10001000D5130008DB130008E113000800000000FE
:10002000000000000000000000000000E7130008CE
:10003000F313000800000000FF1300080B14000871
:100040009D1600089D1600089D1600089D160008C4
:100050009D1600089D1600089D1600089D160008B4
:100060009D1600089D1600089D1600089D160008A4
:100070009D1600089D1600089D1600089D16000894
:100080009D1600089D1600089D1600089D16000884
:100090009D1600089D1600089D1600089D16000874
:1000A0009D1600089D1600089D1600089D16000864
:1000B000191400089D160008000000009D16000895
:1000C0009D16000800000000000000009D160008BA
:1000D000000000009D1600089D16000800000000AA
:1000E0009D1600089D1600089D16000800000000DF
:1000F0000000000000000000000000000000000000
:0C01000000000000000000005FF808F1A3
:10010C0010B5054C237833B9044B13B10448AFF345
:10011C0000800123237010BD880000200000000027
:10012C00CC2C000808B5034B1BB103490348AFF3B3
:10013C00008008BD000000008C000020CC2C0008C2
:10014C0080B483B000AF7860094A7B6852F82330E2
:10015C00012B06D1064A7B68002142F823100123AB
:10016C0000E0002318460C37BD4680BC704700BF2A
:10017C00A400002080B483B000AF7860044A7B6890
:10018C00012142F8231000BF0C37BD4680BC7047DC
:10019C00A400002080B582B000AF01237B6077E023
:1001AC003F4A7B6852F823203E497B6841F8232064
:1001BC003D4A7B6852F8232039497B6841F823205B
:1001CC007B68012B08D14FF40071384801F04CFDCD
:1001DC0003461A46344B5A607B68022B08D14FF405
:1001EC008061324801F040FD03461A462E4B9A605E
:1001FC007B68032B08D14FF400612C4801F034FDCF
:10020C0003461A46284BDA60264A7B6852F82320AC
:10021C0023497B6851F823309A4236D1204A7B68B7
:10022C0052F8232020497B6851F823309A422CD174
:10023C001F4A7B6852F823201B497B6851F82330F6
:10024C009A4214D0184A7B6852F8232018497B68CC
:10025C0041F82320144A7B6852F82330002B14D128
:10026C007868FFF787FF134BC8221A600DE0114B1B
:10027C001B68013B0F4A13600E4B1B68002B04D10B
:10028C000B4A7B68012142F823107B6801337B60A9
:10029C007B68032B84DD00BF00BF0837BD4680BDE3
:1002AC001000002000000020200000200008014069
:1002BC00300000204000002080B500AF9C4B1B6834
:1002CC00013B032B00F2018101A252F823F000BF85
:1002DC00ED0200081F030008B303000845040008E2
:1002EC00934B02221A60934B1B68013B924A13609A
:1002FC0000F086FD914B00221A60914B02221A608D
:10030C008C4B1B689B008F4A13608F4B05221A6025
:10031C00E2E000F0CDFB8A4B1B68002B15DC01F0F2
:10032C00EBF8864B1B68184600F022FD834B1B68CC
:10033C000133824A1360814B1B68012B02DD7F4B1A
:10034C0000221A607E4B02221A607E4B1B68002B27
:10035C000DDC774B03221A607C4B1B68764A1360CA
:10036C0000F04EFD794B1B689B00764A1360764B70
:10037C001B68002B09DC704B1B68013B6E4A136039
:10038C0000F03EFD704B04221A600120FFF7D8FEEE
:10039C000346012B40F09B80654B14221A606C4B7A
:1003AC0014221A6093E000F083FB654B1B68002B52
:1003BC0015DC01F0B7F8614B1B68184600F0D8FC4F
:1003CC005E4B1B6801335D4A13605C4B1B68012B51
:1003DC0002DD5A4B00221A60594B02221A60594B0B
:1003EC001B68002B0DDC524B04221A60594B1B6806
:1003FC00514A136000F004FD564B1B689B00514A98
:10040C001360514B1B68002B09DC4B4B1B68013BE9
:10041C00494A136000F0F4FC4B4B04221A60012093
:10042C00FFF78EFE0346012B53D1414B14221A6069
:10043C00474B14221A604CE000F03AFB404B1B680F
:10044C00002B15DC01F084F83C4B1B68184600F0BF
:10045C008FFC3A4B1B680133384A1360374B1B68CF
:10046C00012B02DD354B00221A60354B02221A603B
:10047C00344B1B68002B0DDC2D4B02221A602D4BCC
:10048C001B682D4A136000F0BBFC2A4B1B689B00B9
:10049C002C4A13602C4B1B68002B09DC264B1B6869
:1004AC00013B254A136000F0ABFC274B04221A6079
:1004BC000120FFF745FE0346012B0CD11C4B1422E7
:1004CC001A60234B14221A6005E000BF04E000BF41
:1004DC0002E000BF00E000BF1D4B1B68013B032B7B
:1004EC0000F21A8101A252F823F000BF090500089E
:1004FC00790500080906000897060008144B03222A
:10050C001A60124B1B68013B134A136000F09EFCEF
:10051C00124B00221A60124B02221A600B4B1B6802
:10052C009B00104A1360104B05221A60FBE000BFC1
:10053C00440000204C00002068000020C000002077
:10054C00D4000020E4000020E00000205000002037
:10055C0048000020540000206C000020C400002043
:10056C00DC000020D0000020CC00002000F0BCFA01
:10057C006E4B1B68002B13DC00F07CFF6C4B1B6874
:10058C005A1C6B490A60184600F016FC684B1B6835
:10059C00012B02DD664B00221A60644B02221A60AA
:1005AC00644B1B68002B0DDC634B03221A60634BFE
:1005BC001B68634A136000F049FC604B1B689B008E
:1005CC005C4A13605F4B1B68002B09DC5C4B1B689F
:1005DC00013B5B4A136000F039FC5A4B04221A6051
:1005EC000120FFF7ADFD0346012B40F09780524BE5
:1005FC0014221A60544B14221A608FE000F074FA23
:10060C004A4B1B68002B13DC00F04AFF484B1B685D
:10061C005A1C47490A60184600F0CEFB444B1B6835
:10062C00012B02DD424B00221A60404B02221A6061
:10063C00404B1B68002B0DDC3F4B04221A60434BD4
:10064C001B683F4A136000F001FC404B1B689B0089
:10065C00384A13603B4B1B68002B09DC384B1B687A
:10066C00013B374A136000F0F1FB364B04221A6051
:10067C000120FFF765FD0346012B51D12E4B1422AF
:10068C001A60314B14221A604AE000F02DFA274B05
:10069C001B68002B13DC00F019FF254B1B685A1C40
:1006AC0023490A60184600F087FB214B1B68012B7D
:1006BC0002DD1F4B00221A601C4B02221A601D4BDC
:1006CC001B68002B0DDC1C4B02221A60204B1B6894
:1006DC001B4A136000F0BAFB1D4B1B689B00154AAC
:1006EC001360184B1B68002B09DC154B1B68013B76
:1006FC00134A136000F0AAFB124B04221A6001206B
:10070C00FFF71EFD0346012B0CD10B4B14221A6074
:10071C000D4B14221A6005E000BF04E000BF02E09C
:10072C0000BF00E000BF00BF80BD00BFDC000020A8
:10073C00C4000020D0000020480000205000002001
:10074C006C000020CC00002044000020540000204D
:10075C004C00002080B500AF7E4B1B68143B042B73
:10076C0000F2688101A252F823F000BF8D07000847
:10077C00A9070008EF070008AB0800088909000862
:10078C00744B16221A6000F08BF9734B04221A601A
:10079C00724B28221A6000F065F952E16E4B1B680F
:1007AC00013B6D4A13606D4B1B68013B6B4A136038
:1007BC00694B1B68002B05DC664B01221A60684BE9
:1007CC0001221A600120FFF7BBFC0346012B05D167
:1007DC00604B16221A60614B28221A6000F042F915
:1007EC002FE15E4B1B68013B5C4A1360002000F05C
:1007FC007DFA022000F094F95A4B1B685A4A136098
:10080C0000F0FEFA594B1B685A1C58490A601846EE
:10081C0000F0AEFA554B1B68012B02DD534B002246
:10082C001A6000F0ABFE0120FFF78AFC0346012B97
:10083C0005D1484B17221A60484B28221A60022017
:10084C00FFF77EFC0346012B0ED1464B1B68013390
:10085C00444A1360434B1B68632B02DD414B00225F
:10086C001A603E4B28221A600320FFF769FC0346EE
:10087C00012B0BD13B4B1B683D4A1360354B1522AA
:10088C001A6000F00DF9344B04221A60334B1B68CC
:10089C00002B00F3D1802F4B15221A60CCE02F4B8C
:1008AC001B68013B2D4A1360002000F01FFA032047
:1008BC0000F036F92F4B1B682B4A136000F0A0FA9E
:1008CC002A4B1B685A1C29490A60184600F050FA3A
:1008DC00264B1B68012B02DD244B00221A6000F012
:1008EC006FFE0120FFF72CFC0346012B05D1194BA1
:1008FC0018221A60194B28221A600220FFF720FCDC
:10090C000346012B0BD11B4B1B680133194A136097
:10091C00184B1B68632B02DD164B00221A60032058
:10092C00FFF70EFC0346012B0BD1124B1B68124A2E
:10093C001360084B15221A6000F0B2F8064B042223
:10094C001A60064B1B68002B78DC024B15221A60D0
:10095C0074E000BF44000020E8000020D800002014
:10096C0048000020B400002068000020C0000020D7
:10097C004C000020B800002050000020324B1B68B7
:10098C00013B314A1360002000F0B0F9042000F064
:10099C00C7F82E4B1B682E4A136000F031FA2D4B12
:1009AC001B685A1C2B490A60184600F0E1F9294BC8
:1009BC001B68012B02DD274B00221A6000F022FE7F
:1009CC000120FFF7BDFB0346012B07D1224B15225B
:1009DC001A6000F065F8214B04221A600220FFF720
:1009EC00AFFB0346012B0BD1184B1B680133174A85
:1009FC001360164B1B68632B02DD144B00221A602C
:100A0C000320FFF79DFB0346012B0BD10F4B1B68FB
:100A1C00134A1360104B15221A6000F041F80F4B6B
:100A2C0004221A60084B1B68002B09DC0A4B1522A8
:100A3C001A6005E000BF04E000BF02E000BF00E068
:100A4C0000BF00BF80BD00BFD8000020BC0000204C
:100A5C0068000020C000002044000020E8000020B6
:100A6C005400002080B400AF074B1B68074A13608A
:100A7C00074B1B68074A1360074B1B68074A136038
:100A8C0000BFBD4680BC70474C000020B400002065
:100A9C0050000020B800002054000020BC000020B2
:100AAC0080B500AF00F04AF900F0C0FC00BF80BD7B
:100ABC0080B400AF094B1B68013B084A1360084B1C
:100ACC001B68013B064A1360064B1B68013B054A39
:100ADC00136000BFBD4680BC704700BFD40000202F
:100AEC00E4000020E000002080B400AF094B1B683C
:100AFC00013B084A1360084B1B68013B064A136014
:100B0C00064B1B68013B054A136000BFBD4680BC09
:100B1C00704700BFDC000020D0000020CC0000207B
:100B2C0080B584B000AF7860294A7B6813441B7889
:100B3C00FB73FB7B03F00103DBB21A460121254852
:100B4C0001F0A9F8FB7B5B10DBB203F00103DBB215
:100B5C001A4602211F4801F09EF8FB7B9B10DBB26A
:100B6C0003F00103DBB21A4604211A4801F093F892
:100B7C00FB7BDB10DBB203F00103DBB21A4608216E
:100B8C00144801F088F8FB7B1B11DBB203F0010366
:100B9C00DBB21A4610210F4801F07DF8FB7B5B118C
:100BAC00DBB203F00103DBB21A462021094801F045
:100BBC0072F8FB7B9B11DBB203F00103DBB21A462C
:100BCC004021044801F067F800BF1037BD4680BDD6
:100BDC0070000020000C014080B584B000AF78603C
:100BEC002C4A7B6813441B78FB73FB7B03F00103DB
:100BFC00DBB21A468021284801F04DF8FB7B5B10D4
:100C0C00DBB203F00103DBB21A464FF480712248C9
:100C1C0001F041F8FB7B9B10DBB203F00103DBB26C
:100C2C001A464FF400711C4801F035F8FB7BDB10C1
:100C3C00DBB203F00103DBB21A464FF480611648B5
:100C4C0001F029F8FB7B1B11DBB203F00103DBB2D3
:100C5C001A464FF40061104801F01DF8FB7B5B1144
:100C6C00DBB203F00103DBB21A464FF480510A48A1
:100C7C0001F011F8FB7B9B11DBB203F00103DBB23B
:100C8C001A464FF40051044801F005F800BF103724
:100C9C00BD4680BD70000020000C014080B582B0C4
:100CAC0000AF78607B68002B0BD100224FF48041A1
:100CBC000D4800F0F0FF01224FF400410A4800F00B
:100CCC00EAFF7B68012B0BD100224FF40041064850
:100CDC0000F0E1FF01224FF48041034800F0DBFFFC
:100CEC0000BF0837BD4680BD0008014080B582B00A
:100CFC0000AF78607B68002B0BD100224FF4805141
:100D0C000D4800F0C8FF01224FF400510A4800F0D2
:100D1C00C2FF7B68012B0BD100224FF40051064817
:100D2C0000F0B9FF01224FF48051034800F0B3FFEB
:100D3C0000BF0837BD4680BD0008014080B500AF3C
:100D4C0001224FF47041084800F0A5FF01227F21D9
:100D5C00064800F0A0FF01224FF47E51034800F03A
:100D6C009AFF00BF80BD00BF00080140000C01408D
:100D7C0080B582B000AF78607B68002B03D07B68B5
:100D8C00012B09D011E00020FFF788FF094B1B68ED
:100D9C001846FFF721FF08E00120FFF77FFF054B06
:100DAC005B681846FFF718FF00BF00BF0837BD4649
:100DBC0080BD00BF5800002080B582B000AF7860C5
:100DCC007B68002B03D07B68012B09D011E000203D
:100DDC00FFF78CFF094B1B681846FFF7A1FE08E0D4
:100DEC000120FFF783FF054B5B681846FFF798FE61
:100DFC0000BF00BF0837BD4680BD00BF60000020AB
:100E0C0080B400AF0E4B1B680E4A82FB031292108B
:100E1C00DB17D31A0C4A1360094B1968094B83FB77
:100E2C0001239A10CB17D21A13469B0013445B0074
:100E3C00CA1A054B5A6000BFBD4680BC704700BF44
:100E4C0068000020676666665800002080B400AF1A
:100E5C000E4B1B680E4A82FB03129210DB17D31A3F
:100E6C000C4A1360094B1968094B83FB01239A1038
:100E7C00CB17D21A13469B0013445B00CA1A054BBE
:100E8C005A6000BFBD4680BC704700BF6C0000209C
:100E9C00676666666000002080B500AF00F0FAFB64
:100EAC0000F026F800F0ACF800F05EF80C4801F009
:100EBC004FFBFFF7F5FD00F023F90A22002109484A
:100ECC0000F02AF9FA220021074800F025F9FA224D
:100EDC000021064800F020F900F0DEF9FCE700BF25
:100EEC00EC000020A1010008C50200086107000801
:100EFC0080B590B000AF07F11803282200211846E6
:100F0C0001F0D6FE3B1D00221A605A609A60DA602E
:100F1C001A610223BB610123BB621023FB62002315
:100F2C007B6307F11803184600F0E6FE0346002B1E
:100F3C0001D000F0DFF80F237B600023BB6000239F
:100F4C00FB6000233B6100237B613B1D00211846A5
:100F5C0001F052F90346002B01D000F0CBF800BF92
:100F6C004037BD4680BD000080B586B000AF07F1AC
:100F7C00080300221A605A609A60DA603B4600222D
:100F8C001A605A601D4B4FF080421A601B4B41F6A1
:100F9C003F725A60194B00229A60184B0922DA6092
:100FAC00164B00221A61154B00229A61134801F06E
:100FBC007FFA0346002B01D000F09CF84FF48053CD
:100FCC00BB6007F1080319460C4801F0FDFB034612
:100FDC00002B01D000F08EF800233B6000237B60D7
:100FEC003B461946054801F0D5FD0346002B01D0C0
:100FFC0000F080F800BF1837BD4680BDEC00002023
:10100C0080B588B000AF07F1100300221A605A6057
:10101C009A60DA602F4B9B692E4A43F02003936150
:10102C002C4B9B6903F02003FB60FB68294B9B69ED
:10103C00284A43F004039361264B9B6903F0040395
:10104C00BB60BB68234B9B69224A43F00803936146
:10105C00204B9B6903F008037B607B6800224FF2F6
:10106C00FC011D4800F017FE002243F6FF711B48DF
:10107C0000F011FE4FF2FC033B6101237B61002366
:10108C00BB610223FB6107F110031946124800F003
:10109C0071FC43F6FF733B6101237B610023BB6151
:1010AC000223FB6107F1100319460C4800F062FCA7
:1010BC004FF460633B6100237B610123BB6107F14B
:1010CC0010031946044800F055FC00BF2037BD46FC
:1010DC0080BD00BF0010024000080140000C014020
:1010EC0080B582B000AF786000F076F800BF0837AA
:1010FC00BD4680BD80B400AF72B600BFFEE70000F5
:10110C0080B400AF034B00221A7000BFBD4680BCF8
:10111C00704700BFC800002080B485B000AFF860F5
:10112C00B9607A60294B1B78272B4AD8274B1B7840
:10113C001946274A0B469B000B449B001344FA6844
:10114C001A60224B1B781846BB68224AA2FB032369
:10115C00DA081F4903469B0003449B000B440433ED
:10116C001A601A4B1B7818467B681A4AA2FB032399
:10117C00DA08174903469B0003449B000B440833D1
:10118C001A60124B1B781946114A0B469B000B44F4
:10119C009B0013440C3300221A700C4B1A780B4B27
:1011AC001B78194610460A4A0B469B000B449B00C1
:1011BC00134410331860054B1B780133DAB2034B20
:1011CC001A7000BF1437BD4680BC7047C8000020A1
:1011DC0034010020CDCCCCCC80B483B000AF002344
:1011EC007B6048E02A497A6813469B0013449B00B5
:1011FC000B4404331B68002B13D025497A68134623
:10120C009B0013449B000B4404331B68591E20485D
:10121C007A6813469B0013449B0003440433196003
:10122C0026E01B497A6813469B0013449B000B4431
:10123C000833196816487A6813469B0013449B00C0
:10124C0003440433196012497A6813469B00134413
:10125C009B000B440C331B780133D8B20C497A68D1
:10126C0013469B0013449B000B440C3302461A702C
:10127C007B6801337B60074B1B781A467B68934273
:10128C00B0DB00BF00BF0C37BD4680BC704700BF51
:10129C0034010020C800002080B582B000AF0023CC
:1012AC007B602BE019497A6813469B0013449B0022
:1012BC000B440C331B78002B1DD014497A68134651
:1012CC009B0013449B000B440C331B78013BD8B29E
:1012DC000E497A6813469B0013449B000B440C3355
:1012EC0002461A7009497A6813469B0013449B0006
:1012FC000B441B6898477B6801337B607B68272B0A
:10130C00D0DD00BF00BF0837BD4680BD34010020D2
:10131C0080B485B000AF154B9B69144A43F00103B0
:10132C009361124B9B6903F00103BB60BB680F4BCD
:10133C00DB690E4A43F08053D3610C4BDB6903F03D
:10134C0080537B607B680A4B5B68FB60FB6823F017
:10135C00E063FB60FB6843F08063FB60044AFB685E
:10136C00536000BF1437BD4680BC7047001002406C
:10137C000000014080B584B000AF78607B681B68CA
:10138C00B3F1804F13D10C4BDB690B4A43F00103D3
:10139C00D361094BDB6903F00103FB60FB6800229E
:1013AC0000211C2000F0AFFA1C2000F0C8FA00BF8E
:1013BC001037BD4680BD00BF0010024080B400AFA6
:1013CC00FEE780B400AFFEE780B400AFFEE780B468
:1013DC0000AFFEE780B400AFFEE780B400AF00BF03
:1013EC00BD4680BC704780B400AF00BFBD4680BC1A
:1013FC00704780B400AF00BFBD4680BC704780B55D
:10140C0000AF00F08DF900BF80BD000080B500AFCB
:10141C00024801F0E9F800BF80BD00BFEC000020DD
:10142C0080B400AF00BFBD4680BC704780B500AF34
:10143C00012204210E4800F02EFC012208210C4848
:10144C0000F029FC01221021094800F024FC0122A3
:10145C002021074800F01FFC01224021044800F025
:10146C001AFC01228021024800F015FC00BF80BD4F
:10147C000008014080B500AF00220421074800F0AD
:10148C000AFC01220821054800F005FC012210216C
:10149C00024800F000FC00BF80BD00BF0008014006
:1014AC0080B500AF01220421074800F0F4FB0022B4
:1014BC000821054800F0EFFB01221021024800F042
:1014CC00EAFB00BF80BD00BF0008014080B500AF43
:1014DC0001220421074800F0DEFB01220821054807
:1014EC0000F0D9FB00221021024800F0D4FB00BF11
:1014FC0080BD00BF0008014080B500AF0022202154
:10150C00074800F0C8FB01224021054800F0C3FB4E
:10151C0001228021024800F0BEFB00BF80BD00BF4D
:10152C000008014080B500AF01222021074800F0DF
:10153C00B2FB00224021054800F0ADFB01228021C6
:10154C00024800F0A8FB00BF80BD00BF00080140AE
:10155C0080B500AF01222021074800F09CFB01223E
:10156C004021054800F097FB00228021024800F042
:10157C0092FB00BF80BD00BF0008014080B500AFEA
:10158C00012208210D4800F086FB012240210B4866
:10159C0000F081FB01221021084800F07CFB0122A5
:1015AC008021064800F077FB0421044800F08BFBF7
:1015BC002021024800F087FB00BF80BD00080140DD
:1015CC0080B500AF012204210D4800F064FB01221C
:1015DC0020210B4800F05FFB01221021084800F08D
:1015EC005AFB01228021064800F055FB08210448D3
:1015FC0000F069FB4021024800F065FB00BF80BD94
:10160C000008014080B500AF012208210D4800F010
:10161C0042FB012240210B4800F03DFB012204213A
:10162C00084800F038FB01222021064800F033FB6B
:10163C001021044800F047FB8021024800F043FBD6
:10164C0000BF80BD00080140FFF7EAFE0B480C49C3
:10165C000C4A002302E0D458C4500433C4188C4202
:10166C00F9D3094A094C002301E013600432A24269
:10167C00FBD301F0F9FAFFF70FFC704700000020D4
:10168C0088000020102D000888000020580400203D
:10169C00FEE7000080B500AF084B1B68074A43F01B
:1016AC0010031360032000F023F90F2000F008F85A
:1016BC00FFF72EFE0023184680BD00BF002002401D
:1016CC0080B582B000AF7860124B1A68124B1B7851
:1016DC0019464FF47A73B3FBF1F3B2FBF3F31846EC
:1016EC0000F03BF90346002B01D001230EE07B6890
:1016FC000F2B0AD8002279684FF0FF3000F003F965
:10170C00064A7B681360002300E001231846083763
:10171C00BD4680BD7C00002084000020800000209D
:10172C0080B400AF054B1B781A46054B1B6813445D
:10173C00034A136000BFBD4680BC70478400002084
:10174C005404002080B400AF024B1B681846BD4601
:10175C0080BC70475404002080B485B000AF786022
:10176C007B6803F00703FB600C4BDB68BB60BA685B
:10177C004FF6FF031340BB60FB681A02BB681343B0
:10178C0043F0BF6343F40033BB60044ABB68D360CF
:10179C0000BF1437BD4680BC704700BF00ED00E0B1
:1017AC0080B400AF044BDB681B0A03F00703184638
:1017BC00BD4680BC704700BF00ED00E080B483B034
:1017CC0000AF0346FB7197F90730002B0BDBFB795D
:1017DC0003F01F02064997F907305B09012000FA54
:1017EC0002F241F8232000BF0C37BD4680BC704785
:1017FC0000E100E080B483B000AF03463960FB71B8
:10180C0097F90730002B0ADB3B68DAB20C4997F9E1
:10181C0007301201D2B20B4483F800230AE03B6874
:10182C00DAB20849FB7903F00F03043B1201D2B280
:10183C000B441A7600BF0C37BD4680BC704700BF06
:10184C0000E100E000ED00E080B489B000AFF8608A
:10185C00B9607A60FB6803F00703FB61FB69C3F1B5
:10186C000703042B28BF0423BB61FB690433062B3D
:10187C0002D9FB69033B00E000237B614FF0FF3290
:10188C00BB6902FA03F3DA43BB681A407B699A40DE
:10189C004FF0FF317B6901FA03F3D9437B680B40AE
:1018AC00134318462437BD4680BC704780B582B0C0
:1018BC0000AF78607B68013BB3F1807F01D30123DB
:1018CC000FE00A4A7B68013B53600F214FF0FF3059
:1018DC00FFF790FF054B00229A60044B07221A6019
:1018EC00002318460837BD4680BD00BF10E000E05D
:1018FC0080B582B000AF78607868FFF72DFF00BF2D
:10190C000837BD4680BD80B586B000AF0346B960D0
:10191C007A60FB7300237B61FFF742FF78617A6882
:10192C00B9687869FFF790FF024697F90F301146B6
:10193C001846FFF75FFF00BF1837BD4680BD80B566
:10194C0082B000AF0346FB7197F907301846FFF7DA
:10195C0035FF00BF0837BD4680BD80B582B000AFF3
:10196C0078607868FFF7A2FF034618460837BD4633
:10197C0080BD000080B48BB000AF7860396000236C
:10198C007B6200233B6248E101227B6A02FA03F38B
:10199C00FB613B681B68FA691340BB61BA69FB6960
:1019AC009A4240F037813B685B68A34A93425ED011
:1019BC00A14A934275D8A14A934258D09F4A934268
:1019CC006FD89F4A934252D09D4A934269D89D4A00
:1019DC0093424CD09B4A934263D89B4A934246D045
:1019EC00994A93425DD8122B2AD8122B59D801A2AE
:1019FC0052F823F07B1A0008551A0008671A0008E1
:101A0C00A91A0008AF1A0008AF1A0008AF1A00088C
:101A1C00AF1A0008AF1A0008AF1A0008AF1A000876
:101A2C00AF1A0008AF1A0008AF1A0008AF1A000866
:101A3C00AF1A0008AF1A00085D1A0008711A0008E6
:101A4C00824A934213D02CE03B68DB683B6229E06E
:101A5C003B68DB6804333B6224E03B68DB6808339B
:101A6C003B621FE03B68DB680C333B621AE03B686F
:101A7C009B68002B02D104233B6213E03B689B68FC
:101A8C00012B05D108233B627B68FA691A6109E0D6
:101A9C0008233B627B68FA695A6103E000233B62CE
:101AAC0000E000BFBB69FF2B01D87B6801E07B68BD
:101ABC0004337B61BB69FF2B02D87B6A9B0002E07D
:101ACC007B6A083B9B003B617B691A680F213B6971
:101ADC0001FA03F3DB431A40396A3B6901FA03F359
:101AEC001A437B691A603B685B6803F08053002BD8
:101AFC0000F09080564B9B69554A43F0010393616B
:101B0C00534B9B6903F00103BB60BB68514A7B6A72
:101B1C009B08023352F82330FB607B6A03F003030B
:101B2C009B000F2202FA03F3DB43FA681340FB60BD
:101B3C007B68494A93420DD07B68484A934207D050
:101B4C007B68474A934201D1022304E0032302E05D
:101B5C00012300E000237A6A02F003029200934012
:101B6C00FA681343FB603B497B6A9B080233FA68B3
:101B7C0041F823203B685B6803F48013002B06D0EC
:101B8C00384B9A683749BB6913438B6006E0354B79
:101B9C009A68BB69DB43334913408B603B685B68D5
:101BAC0003F40013002B06D02E4BDA682D49BB69C9
:101BBC001343CB6006E02B4BDA68BB69DB43294946
:101BCC001340CB603B685B6803F40033002B06D0FA
:101BDC00244B5A682349BB6913434B6006E0214BE5
:101BEC005A68BB69DB431F4913404B603B685B6819
:101BFC0003F48033002B06D01A4B1A681949BB69C1
:101C0C0013430B6006E0174B1A68BB69DB4315499D
:101C1C0013400B607B6A01337B623B681A687B6AFA
:101C2C0022FA03F3002B7FF4AFAE00BF00BF2C37BA
:101C3C00BD4680BC704700BF000032100000311060
:101C4C0000002210000021100000121000001110E2
:101C5C00001002400000014000080140000C01404F
:101C6C00001001400004014080B485B000AF7860E2
:101C7C000B467B807B689A687B881340002B02D0D4
:101C8C000123FB7301E00023FB73FB7B1846143725
:101C9C00BD4680BC704780B483B000AF78600B4603
:101CAC007B8013467B707B78002B03D07A887B6813
:101CBC001A6103E07B881A047B681A6100BF0C3739
:101CCC00BD4680BC704780B485B000AF78600B46D1
:101CDC007B807B68DB68FB607A88FB6813401A04A6
:101CEC00FB68D9437B880B401A437B681A6100BFA1
:101CFC001437BD4680BC704780B586B000AF7860A5
:101D0C007B68002B01D101236CE27B681B6803F01C
:101D1C000103002B00F08780924B5B6803F00C03EF
:101D2C00042B0CD08F4B5B6803F00C03082B12D1E7
:101D3C008C4B5B6803F48033B3F5803F0BD1894B3C
:101D4C001B6803F40033002B6CD07B685B68002BA2
:101D5C0068D1012346E27B685B68B3F5803F06D10E
:101D6C00804B1B687F4A43F4803313602EE07B6802
:101D7C005B68002B0CD17B4B1B687A4A23F48033B5
:101D8C001360784B1B68774A23F4802313601DE0A3
:101D9C007B685B68B3F5A02F0CD1724B1B68714A42
:101DAC0043F4802313606F4B1B686E4A43F48033FB
:101DBC0013600BE06B4B1B686A4A23F4803313608F
:101DCC00684B1B68674A23F4802313607B685B684D
:101DDC00002B13D0FFF7B6FC386108E0FFF7B2FC1C
:101DEC0002463B69D31A642B01D90323FAE15D4BFC
:101DFC001B6803F40033002BF0D014E0FFF7A2FCB7
:101E0C00386108E0FFF79EFC02463B69D31A642B4D
:101E1C0001D90323E6E1534B1B6803F40033002B79
:101E2C00F0D100E000BF7B681B6803F00203002BBD
:101E3C0063D04C4B5B6803F00C03002B0BD0494B6D
:101E4C005B6803F00C03082B1CD1464B5B6803F456
:101E5C008033002B16D1434B1B6803F00203002B7D
:101E6C0005D07B681B69012B01D00123BAE13D4BE6
:101E7C001B6823F0F8027B685B69DB00394913436C
:101E8C000B603AE07B681B69002B20D0364B01229B
:101E9C001A60FFF757FC386108E0FFF753FC024665
:101EAC003B69D31A022B01D903239BE12D4B1B68F1
:101EBC0003F00203002BF0D02A4B1B6823F0F8022E
:101ECC007B685B69DB00274913430B6015E0264BED
:101EDC0000221A60FFF736FC386108E0FFF732FC8D
:101EEC0002463B69D31A022B01D903237AE11D4B1D
:101EFC001B6803F00203002BF0D17B681B6803F016
:101F0C000803002B3AD07B689B69002B19D0174B28
:101F1C0001221A60FFF716FC386108E0FFF712FC8B
:101F2C0002463B69D31A022B01D903235AE10D4B0C
:101F3C005B6A03F00203002BF0D0012000F09AFA48
:101F4C001CE00A4B00221A60FFF7FCFB38610FE023
:101F5C00FFF7F8FB02463B69D31A022B08D903237F
:101F6C0040E100BF001002400000424280044242A7
:101F7C009E4B5B6A03F00203002BE9D17B681B6864
:101F8C0003F00403002B00F0A6800023FB75974B95
:101F9C00DB6903F08053002B0DD1944BDB69934A22
:101FAC0043F08053D361914BDB6903F08053BB60EA
:101FBC00BB680123FB758E4B1B6803F48073002BED
:101FCC0018D18B4B1B688A4A43F480731360FFF75C
:101FDC00B9FB386108E0FFF7B5FB02463B69D31A41
:101FEC00642B01D90323FDE0814B1B6803F4807340
:101FFC00002BF0D07B68DB68012B06D17B4B1B6A76
:10200C007A4A43F0010313622DE07B68DB68002BF6
:10201C000CD1764B1B6A754A23F001031362734B88
:10202C001B6A724A23F0040313621CE07B68DB68B2
:10203C00052B0CD16D4B1B6A6C4A43F004031362E5
:10204C006A4B1B6A694A43F0010313620BE0674B4E
:10205C001B6A664A23F001031362644B1B6A634AD2
:10206C0023F0040313627B68DB68002B15D0FFF7A9
:10207C0069FB38610AE0FFF765FB02463B69D31A3E
:10208C0041F28832934201D90323ABE0574B1B6AD0
:10209C0003F00203002BEED014E0FFF753FB386182
:1020AC000AE0FFF74FFB02463B69D31A41F2883234
:1020BC00934201D9032395E04C4B1B6A03F00203B6
:1020CC00002BEED1FB7D012B05D1484BDB69474A38
:1020DC0023F08053D3617B68DB69002B00F0818097
:1020EC00424B5B6803F00C03082B61D07B68DB6907
:1020FC00022B46D13F4B00221A60FFF723FB3861BD
:10210C0008E0FFF71FFB02463B69D31A022B01D9EB
:10211C00032367E0354B1B6803F00073002BF0D1F1
:10212C007B681B6AB3F5803F08D1304B5B6823F4A6
:10213C0000327B689B682D4913434B602B4B5B68CB
:10214C0023F474127B68196A7B685B6A0B4327491A
:10215C0013434B60274B01221A60FFF7F3FA3861E7
:10216C0008E0FFF7EFFA02463B69D31A022B01D9BC
:10217C00032337E01D4B1B6803F00073002BF0D0DA
:10218C002FE01C4B00221A60FFF7DCFA386108E0E4
:10219C00FFF7D8FA02463B69D31A022B01D9032365
:1021AC0020E0124B1B6803F00073002BF0D118E0F9
:1021BC007B68DB69012B01D1012313E00B4B5B68BE
:1021CC00FB60FB6803F480327B681B6A9A4206D181
:1021DC00FB6803F470127B685B6A9A4201D001239E
:1021EC0000E0002318461837BD4680BD00100240A1
:1021FC00007000406000424280B584B000AF78604F
:10220C0039607B68002B01D10123D0E06A4B1B683D
:10221C0003F007033A689A4210D9674B1B6823F006
:10222C00070265493B6813430B60634B1B6803F063
:10223C0007033A689A4201D00123B8E07B681B6817
:10224C0003F00203002B20D07B681B6803F004030F
:10225C00002B05D0594B5B68584A43F4E06353603C
:10226C007B681B6803F00803002B05D0534B5B689D
:10227C00524A43F460535360504B5B6823F0F002B6
:10228C007B689B684D4913434B607B681B6803F06C
:10229C000103002B40D07B685B68012B07D1474BB7
:1022AC001B6803F40033002B15D101237FE07B68FE
:1022BC005B68022B07D1414B1B6803F00073002BAA
:1022CC0009D1012373E03D4B1B6803F00203002B83
:1022DC0001D101236BE0394B5B6823F003027B686F
:1022EC005B68364913434B60FFF72CFAF8600AE041
:1022FC00FFF728FA0246FB68D31A41F28832934260
:10230C0001D9032353E02D4B5B6803F00C027B686F
:10231C005B689B009A42EBD1274B1B6803F00703C9
:10232C003A689A4210D2244B1B6823F007022249C8
:10233C003B6813430B60204B1B6803F007033A68A0
:10234C009A4201D0012332E07B681B6803F004033E
:10235C00002B08D0194B5B6823F4E0627B68DB68C8
:10236C00164913434B607B681B6803F00803002B72
:10237C0009D0124B5B6823F460527B681B69DB004D
:10238C000E4913434B6000F021F802460B4B5B687F
:10239C001B0903F00F030A49CB5C22FA03F3094A29
:1023AC001360094B1B681846FFF78AF9002318467F
:1023BC001037BD4680BD00BF002002400010024017
:1023CC00E42C00087C0000208000002080B487B042
:1023DC0000AF0023FB600023BB6000237B61002364
:1023EC007B6000233B611E4B5B68FB60FB6803F06A
:1023FC000C03042B02D0082B03D027E0194B3B61B4
:10240C0027E0FB689B0C03F00F03174AD35C7B603F
:10241C00FB6803F48033002B10D0114B5B685B0C12
:10242C0003F00103114AD35CBB607B680D4A02FBCD
:10243C0003F2BB68B2FBF3F37B6104E07B680C4AEC
:10244C0002FB03F37B617B693B6102E0054B3B6163
:10245C0000BF3B6918461C37BD4680BC704700BFA7
:10246C000010024000127A00F42C0008042D000821
:10247C0000093D0080B485B000AF78600A4B1B6842
:10248C000A4AA2FB03235B0A7A6802FB03F3FB6094
:10249C0000BFFB685A1EFA60002BF9D100BF00BFC9
:1024AC001437BD4680BC70477C000020D34D6210B1
:1024BC0080B582B000AF78607B68002B01D101231E
:1024CC0041E07B6893F83D30DBB2002B06D17B6892
:1024DC00002283F83C207868FEF74CFF7B680222D0
:1024EC0083F83D207B681A687B68043319461046D4
:1024FC0000F056FA7B68012283F846207B680122A3
:10250C0083F83E207B68012283F83F207B68012200
:10251C0083F840207B68012283F841207B680122EC
:10252C0083F842207B68012283F843207B680122D8
:10253C0083F844207B68012283F845207B680122C4
:10254C0083F83D20002318460837BD4680BD0000A7
:10255C0080B485B000AF78607B6893F83D30DBB217
:10256C00012B01D0012335E07B68022283F83D204A
:10257C007B681B68DA687B681B6842F00102DA60D2
:10258C007B681B68164A934209D07B681B68B3F1C1
:10259C00804F04D07B681B68124A934211D17B6830
:1025AC001B689B6803F00703FB60FB68062B10D0CD
:1025BC007B681B681A687B681B6842F001021A6012
:1025CC0007E07B681B681A687B681B6842F0010295
:1025DC001A60002318461437BD4680BC704700BFF4
:1025EC00002C01400004004080B584B000AF78603E
:1025FC007B681B68DB68FB607B681B681B69BB60C6
:10260C00BB6803F00203002B20D0FB6803F002032D
:10261C00002B1BD07B681B686FF002021A617B6871
:10262C0001221A777B681B689B6903F00303002B5C
:10263C0003D0786800F098F905E0786800F08BF921
:10264C00786800F09AF97B6800221A77BB6803F06F
:10265C000403002B20D0FB6803F00403002B1BD0D9
:10266C007B681B686FF004021A617B6802221A7780
:10267C007B681B689B6903F44073002B03D078685C
:10268C0000F072F905E0786800F065F9786800F000
:10269C0074F97B6800221A77BB6803F00803002BDF
:1026AC0020D0FB6803F00803002B1BD07B681B6851
:1026BC006FF008021A617B6804221A777B681B682A
:1026CC00DB6903F00303002B03D0786800F04CF9AE
:1026DC0005E0786800F03FF9786800F04EF97B6807
:1026EC0000221A77BB6803F01003002B20D0FB6884
:1026FC0003F01003002B1BD07B681B686FF01002DB
:10270C001A617B6808221A777B681B68DB6903F403
:10271C004073002B03D0786800F026F905E0786848
:10272C0000F019F9786800F028F97B6800221A7714
:10273C00BB6803F00103002B0CD0FB6803F0010312
:10274C00002B07D07B681B686FF001021A61786858
:10275C00FEF7C6FCBB6803F08003002B0CD0FB68B3
:10276C0003F08003002B07D07B681B686FF080029E
:10277C001A61786800F06FFABB6803F04003002B15
:10278C000CD0FB6803F04003002B07D07B681B6860
:10279C006FF040021A61786800F0F8F8BB6803F03B
:1027AC002003002B0CD0FB6803F02003002B07D078
:1027BC007B681B686FF020021A61786800F042FA9F
:1027CC0000BF1037BD4680BD80B584B000AF7860C7
:1027DC0039600023FB737B6893F83C30012B01D1EB
:1027EC000223B4E07B68012283F83C207B68022240
:1027FC0083F83D207B681B689B68BB60BB6823F03B
:10280C007703BB60BB6823F47F43BB607B681B68AA
:10281C00BA689A603B681B68B3F5005F3ED0B3F5AD
:10282C00005F00F28780B3F5805F00F08680B3F51F
:10283C00805F7FD8702B1AD0702B7BD8602B50D038
:10284C00602B77D8502B3CD0502B73D8402B58D0C2
:10285C00402B6FD8302B64D0302B6BD8202B60D012
:10286C00202B67D8002B5CD0102B5AD062E07B68F1
:10287C0018683B6899683B685A683B68DB6800F0ED
:10288C006AF97B681B689B68BB60BB6843F0770385
:10289C00BB607B681B68BA689A604FE07B681868FD
:1028AC003B6899683B685A683B68DB6800F053F9F1
:1028BC007B681B689A687B681B6842F480429A604C
:1028CC003CE07B6818683B6859683B68DB681A46D3
:1028DC0000F0CAF87B681B685021184600F021F9FB
:1028EC002CE07B6818683B6859683B68DB681A46C3
:1028FC0000F0E8F87B681B686021184600F011F9BD
:10290C001CE07B6818683B6859683B68DB681A46B2
:10291C0000F0AAF87B681B684021184600F001F90A
:10292C000CE07B681A683B681B681946104600F07F
:10293C00F8F803E00123FB7300E000BF7B68012281
:10294C0083F83D207B68002283F83C20FB7B1846F3
:10295C001037BD4680BD80B483B000AF786000BF37
:10296C000C37BD4680BC704780B483B000AF786034
:10297C0000BF0C37BD4680BC704780B483B000AF3D
:10298C00786000BF0C37BD4680BC704780B483B004
:10299C0000AF786000BF0C37BD4680BC70470000AC
:1029AC0080B485B000AF786039607B681B68FB60D1
:1029BC007B682B4A934207D07B68B3F1804F03D0DE
:1029CC007B68284A934208D1FB6823F07003FB60B4
:1029DC003B685B68FA681343FB607B68204A934250
:1029EC0007D07B68B3F1804F03D07B681D4A9342BC
:1029FC0008D1FB6823F44073FB603B68DB68FA6822
:102A0C001343FB60FB6823F080023B685B69134354
:102A1C00FB607B68FA681A603B689A687B68DA62CC
:102A2C003B681A687B689A627B680D4A934203D1B3
:102A3C003B681A697B681A637B6801225A617B6860
:102A4C001B6903F00103002B05D07B681B6923F085
:102A5C0001027B681A6100BF1437BD4680BC704709
:102A6C00002C01400004004080B487B000AFF86037
:102A7C00B9607A60FB681B6A7B61FB681B6A23F098
:102A8C000102FB681A62FB689B693B613B6923F09E
:102A9C00F0033B617B681B013A6913433B617B6923
:102AAC0023F00A037B617A69BB6813437B61FB6883
:102ABC003A699A61FB687A691A6200BF1C37BD4695
:102ACC0080BC704780B487B000AFF860B9607A60A2
:102ADC00FB681B6A7B61FB681B6A23F01002FB68B6
:102AEC001A62FB689B693B613B6923F470433B6151
:102AFC007B681B033A6913433B617B6923F0A0039A
:102B0C007B61BB681B017A6913437B61FB683A6983
:102B1C009A61FB687A691A6200BF1C37BD4680BC9B
:102B2C00704780B485B000AF786039607B689B6873
:102B3C00FB60FB6823F07003FB603A68FB6813438F
:102B4C0043F00703FB607B68FA689A6000BF143798
:102B5C00BD4680BC704780B487B000AFF860B960E8
:102B6C007A603B60FB689B687B617B6923F47F43E5
:102B7C007B613B681A027B681A43BB6813437A6912
:102B8C0013437B61FB687A699A6000BF1C37BD46B2
:102B9C0080BC704780B485B000AF786039607B68CA
:102BAC0093F83C30012B01D1022341E07B680122D8
:102BBC0083F83C207B68022283F83D207B681B68ED
:102BCC005B68FB607B681B689B68BB60FB6823F0E1
:102BDC007003FB603B681B68FA681343FB607B68FF
:102BEC001B68FA685A607B681B68144A934209D0C8
:102BFC007B681B68B3F1804F04D07B681B68104A5C
:102C0C0093420CD1BB6823F08003BB603B685B68CC
:102C1C00BA681343BB607B681B68BA689A607B68B0
:102C2C00012283F83D207B68002283F83C2000239E
:102C3C0018461437BD4680BC704700BF002C0140BD
:102C4C000004004080B483B000AF786000BF0C3744
:102C5C00BD4680BC704780B483B000AF786000BFC5
:102C6C000C37BD4680BC704770B500260C4D0D4C22
:102C7C00641BA410A64209D100F022F800260A4DCC
:102C8C000A4C641BA410A64205D170BD55F8043B38
:102C9C0098470136EEE755F8043B98470136F2E7C2
:102CAC00082D0008082D0008082D00080C2D000820
:102CBC0003460244934200D1704703F8011BF9E725
:102CCC00F8B500BFF8BC08BC9E467047F8B500BF0D
:082CDC00F8BC08BC9E467047DD
:102CE40000000000000000000102030406070809B8
:102CF40002030405060708090A0B0C0D0E0F101039
:042D040001020000C8
:042D0800310100088D
:042D0C000D010008AD
:102D100001000000000000000000000000000000B2
:102D200001000000000000000000000000000000A2
:102D30000100000000000000000000000000000092
:102D40000100000000000000000000000000000082
:102D5000C8000000010000000100000005000000A4
:102D60000300000002000000000000000500000059
:102D70000000000003000000050000000300000048
:102D800040792430191202780010000000127A00F5
:082D900010000000010000002A
:040000050800165584
:00000001FF
